{
  "contractName": "Score",
  "abi": [
    {
      "constant": true,
      "inputs": [
        {
          "name": "",
          "type": "uint256"
        }
      ],
      "name": "students",
      "outputs": [
        {
          "name": "id",
          "type": "uint256"
        },
        {
          "name": "name",
          "type": "string"
        },
        {
          "name": "scoredTimes",
          "type": "uint256"
        },
        {
          "name": "scoredSum",
          "type": "uint256"
        }
      ],
      "payable": false,
      "stateMutability": "view",
      "type": "function"
    },
    {
      "constant": true,
      "inputs": [],
      "name": "studentsNum",
      "outputs": [
        {
          "name": "",
          "type": "uint256"
        }
      ],
      "payable": false,
      "stateMutability": "view",
      "type": "function"
    },
    {
      "constant": true,
      "inputs": [
        {
          "name": "",
          "type": "address"
        }
      ],
      "name": "TAs",
      "outputs": [
        {
          "name": "",
          "type": "bool"
        }
      ],
      "payable": false,
      "stateMutability": "view",
      "type": "function"
    },
    {
      "inputs": [],
      "payable": false,
      "stateMutability": "nonpayable",
      "type": "constructor"
    },
    {
      "anonymous": false,
      "inputs": [
        {
          "indexed": true,
          "name": "_studentId",
          "type": "uint256"
        },
        {
          "indexed": false,
          "name": "_scoredVal",
          "type": "uint256"
        }
      ],
      "name": "selectedEvent",
      "type": "event"
    },
    {
      "constant": false,
      "inputs": [
        {
          "name": "_studentId",
          "type": "uint256"
        },
        {
          "name": "_scoredVal",
          "type": "uint256"
        }
      ],
      "name": "select",
      "outputs": [],
      "payable": false,
      "stateMutability": "nonpayable",
      "type": "function"
    }
  ],
  "bytecode": "0x608060405234801561001057600080fd5b5061005e6040805190810160405280600481526020017f416c6578000000000000000000000000000000000000000000000000000000008152506101e4640100000000026401000000009004565b6100ab6040805190810160405280600581526020017f426f6262790000000000000000000000000000000000000000000000000000008152506101e4640100000000026401000000009004565b6100f86040805190810160405280600a81526020017f43696e646572616c6c61000000000000000000000000000000000000000000008152506101e4640100000000026401000000009004565b6101456040805190810160405280600481526020017f4d617279000000000000000000000000000000000000000000000000000000008152506101e4640100000000026401000000009004565b6101926040805190810160405280600481526020017f4e696e6f000000000000000000000000000000000000000000000000000000008152506101e4640100000000026401000000009004565b6101df6040805190810160405280600481526020017f53617261000000000000000000000000000000000000000000000000000000008152506101e4640100000000026401000000009004565b610317565b6002600081548092919060010191905055506080604051908101604052806002548152602001828152602001600081526020016000815250600160006002548152602001908152602001600020600082015181600001556020820151816001019080519060200190610257929190610272565b50604082015181600201556060820151816003015590505050565b828054600181600116156101000203166002900490600052602060002090601f016020900481019282601f106102b357805160ff19168380011785556102e1565b828001600101855582156102e1579182015b828111156102e05782518255916020019190600101906102c5565b5b5090506102ee91906102f2565b5090565b61031491905b808211156103105760008160009055506001016102f8565b5090565b90565b61040c806103266000396000f300608060405260043610610062576000357c0100000000000000000000000000000000000000000000000000000000900463ffffffff16806306ead22e14610067578063964cd98414610122578063b004a38d1461014d578063bb9aca66146101a8575b600080fd5b34801561007357600080fd5b50610092600480360381019080803590602001909291905050506101df565b6040518085815260200180602001848152602001838152602001828103825285818151815260200191508051906020019080838360005b838110156100e45780820151818401526020810190506100c9565b50505050905090810190601f1680156101115780820380516001836020036101000a031916815260200191505b509550505050505060405180910390f35b34801561012e57600080fd5b506101376102a7565b6040518082815260200191505060405180910390f35b34801561015957600080fd5b5061018e600480360381019080803573ffffffffffffffffffffffffffffffffffffffff1690602001909291905050506102ad565b604051808215151515815260200191505060405180910390f35b3480156101b457600080fd5b506101dd60048036038101908080359060200190929190803590602001909291905050506102cd565b005b6001602052806000526040600020600091509050806000015490806001018054600181600116156101000203166002900480601f0160208091040260200160405190810160405280929190818152602001828054600181600116156101000203166002900480156102915780601f1061026657610100808354040283529160200191610291565b820191906000526020600020905b81548152906001019060200180831161027457829003601f168201915b5050505050908060020154908060030154905084565b60025481565b60006020528060005260406000206000915054906101000a900460ff1681565b6000821180156102df57506002548211155b80156102eb5750600081115b80156102f8575060648111155b151561030357600080fd5b60016000803373ffffffffffffffffffffffffffffffffffffffff1673ffffffffffffffffffffffffffffffffffffffff16815260200190815260200160002060006101000a81548160ff0219169083151502179055506001600083815260200190815260200160002060020160008154809291906001019190505550806001600084815260200190815260200160002060030160008282540192505081905550817f1ad729036537d2fd48d5cba166fe0f72d34424d2205fa3a8ac7c66bd2935724b826040518082815260200191505060405180910390a250505600a165627a7a72305820bd43ab7b06d9bd477e0fee89c6719cf5787cbf06ad02f71ed9cdfb06a8921fb80029",
  "source": "pragma solidity >=0.4.20 <0.6.1;\n\ncontract Score {\n    // Model a Student\n    struct Student {\n        uint id;\n        string name;\n        uint scoredTimes;\n        uint scoredSum;\n    }\n\n    // Store accounts that have selected\n    mapping(address => bool) public TAs;\n    // Store Students\n    // Fetch Student\n    mapping(uint => Student) public students;\n    // Store Students Count\n    uint public studentsNum;\n\n    // selected event\n    event selectedEvent (\n        uint indexed _studentId,\n        uint _scoredVal\n    );\n\n    constructor() public {\n        addStudent(\"Alex\");\n        addStudent(\"Bobby\");\n        addStudent(\"Cinderalla\");\n        addStudent(\"Mary\");\n        addStudent(\"Nino\");\n        addStudent(\"Sara\");\n    }\n\n    function addStudent (string _name) private {\n        studentsNum ++;\n        students[studentsNum] = Student(studentsNum, _name, 0, 0);\n    }\n\n    function select (uint _studentId, uint _scoredVal) public {\n\n        // require a valid student\n        require(_studentId > 0 && _studentId <= studentsNum && _scoredVal > 0 && _scoredVal <= 100);\n\n        // record that selecter has selected\n        TAs[msg.sender] = true;\n\n        // update student select Count\n        students[_studentId].scoredTimes ++;\n\n        // update student score sum\n        students[_studentId].scoredSum += _scoredVal;\n\n        // trigger selected event\n        emit selectedEvent(_studentId, _scoredVal);\n    }\n\n}\n",
  "sourcePath": "/Users/nino/scorechain/contracts/Score.sol",
  "compiler": {
    "name": "solc",
    "version": "0.4.24+commit.e67f0147.Emscripten.clang"
  },
  "schemaVersion": "2.0.1",
  "updatedAt": "2018-12-24T15:32:51.256Z"
}